{
  "transactions": [
    {
      "hash": null,
      "transactionType": "CALL",
      "contractName": null,
      "contractAddress": "0x70997970c51812dc3a010c7d01b50e0d17dc79c8",
      "function": "executeSwap(address,address,uint256,uint256,address,uint256)",
      "arguments": [
        "0xC02aaA39b223FE8D0A0e5C4F27eAD9083C756Cc2",
        "0x6B175474E89094C44Da98b954EedeAC495271d0F",
        "1000000000000000000",
        "500000000000000",
        "0xf39Fd6e51aad88F6F4ce6aB8827279cffFb92266",
        "1749554843"
      ],
      "transaction": {
        "from": "0xa2b2b5d788e02507dc4f41ce43f064a76cb45b2f",
        "to": "0x70997970c51812dc3a010c7d01b50e0d17dc79c8",
        "gas": "0xa2b6",
        "value": "0x0",
        "input": "0x269d43a9000000000000000000000000c02aaa39b223fe8d0a0e5c4f27ead9083c756cc20000000000000000000000006b175474e89094c44da98b954eedeac495271d0f0000000000000000000000000000000000000000000000000de0b6b3a76400000000000000000000000000000000000000000000000000000001c6bf52634000000000000000000000000000f39fd6e51aad88f6f4ce6ab8827279cfffb92266000000000000000000000000000000000000000000000000000000006848169b",
        "nonce": "0x8",
        "chainId": "0x1"
      },
      "additionalContracts": [],
      "isFixedGasLimit": false
    }
  ],
  "receipts": [],
  "libraries": [],
  "pending": [],
  "returns": {},
  "timestamp": 1749551251,
  "chain": 1,
  "commit": null
}